{
  "_format": "hh-sol-artifact-1",
  "contractName": "AccessNFTGasless",
  "sourceName": "contracts/AccessNFTGasless.sol",
  "abi": [
    {
      "inputs": [
        {
          "internalType": "string",
          "name": "name_",
          "type": "string"
        },
        {
          "internalType": "string",
          "name": "symbol_",
          "type": "string"
        },
        {
          "internalType": "address[]",
          "name": "initialRelayers",
          "type": "address[]"
        }
      ],
      "stateMutability": "nonpayable",
      "type": "constructor"
    },
    {
      "inputs": [],
      "name": "ECDSAInvalidSignature",
      "type": "error"
    },
    {
      "inputs": [
        {
          "internalType": "uint256",
          "name": "length",
          "type": "uint256"
        }
      ],
      "name": "ECDSAInvalidSignatureLength",
      "type": "error"
    },
    {
      "inputs": [
        {
          "internalType": "bytes32",
          "name": "s",
          "type": "bytes32"
        }
      ],
      "name": "ECDSAInvalidSignatureS",
      "type": "error"
    },
    {
      "inputs": [
        {
          "internalType": "address",
          "name": "sender",
          "type": "address"
        },
        {
          "internalType": "uint256",
          "name": "tokenId",
          "type": "uint256"
        },
        {
          "internalType": "address",
          "name": "owner",
          "type": "address"
        }
      ],
      "name": "ERC721IncorrectOwner",
      "type": "error"
    },
    {
      "inputs": [
        {
          "internalType": "address",
          "name": "operator",
          "type": "address"
        },
        {
          "internalType": "uint256",
          "name": "tokenId",
          "type": "uint256"
        }
      ],
      "name": "ERC721InsufficientApproval",
      "type": "error"
    },
    {
      "inputs": [
        {
          "internalType": "address",
          "name": "approver",
          "type": "address"
        }
      ],
      "name": "ERC721InvalidApprover",
      "type": "error"
    },
    {
      "inputs": [
        {
          "internalType": "address",
          "name": "operator",
          "type": "address"
        }
      ],
      "name": "ERC721InvalidOperator",
      "type": "error"
    },
    {
      "inputs": [
        {
          "internalType": "address",
          "name": "owner",
          "type": "address"
        }
      ],
      "name": "ERC721InvalidOwner",
      "type": "error"
    },
    {
      "inputs": [
        {
          "internalType": "address",
          "name": "receiver",
          "type": "address"
        }
      ],
      "name": "ERC721InvalidReceiver",
      "type": "error"
    },
    {
      "inputs": [
        {
          "internalType": "address",
          "name": "sender",
          "type": "address"
        }
      ],
      "name": "ERC721InvalidSender",
      "type": "error"
    },
    {
      "inputs": [
        {
          "internalType": "uint256",
          "name": "tokenId",
          "type": "uint256"
        }
      ],
      "name": "ERC721NonexistentToken",
      "type": "error"
    },
    {
      "inputs": [],
      "name": "InvalidShortString",
      "type": "error"
    },
    {
      "inputs": [
        {
          "internalType": "address",
          "name": "owner",
          "type": "address"
        }
      ],
      "name": "OwnableInvalidOwner",
      "type": "error"
    },
    {
      "inputs": [
        {
          "internalType": "address",
          "name": "account",
          "type": "address"
        }
      ],
      "name": "OwnableUnauthorizedAccount",
      "type": "error"
    },
    {
      "inputs": [
        {
          "internalType": "string",
          "name": "str",
          "type": "string"
        }
      ],
      "name": "StringTooLong",
      "type": "error"
    },
    {
      "anonymous": false,
      "inputs": [
        {
          "indexed": true,
          "internalType": "address",
          "name": "owner",
          "type": "address"
        },
        {
          "indexed": true,
          "internalType": "address",
          "name": "approved",
          "type": "address"
        },
        {
          "indexed": true,
          "internalType": "uint256",
          "name": "tokenId",
          "type": "uint256"
        }
      ],
      "name": "Approval",
      "type": "event"
    },
    {
      "anonymous": false,
      "inputs": [
        {
          "indexed": true,
          "internalType": "address",
          "name": "owner",
          "type": "address"
        },
        {
          "indexed": true,
          "internalType": "address",
          "name": "operator",
          "type": "address"
        },
        {
          "indexed": false,
          "internalType": "bool",
          "name": "approved",
          "type": "bool"
        }
      ],
      "name": "ApprovalForAll",
      "type": "event"
    },
    {
      "anonymous": false,
      "inputs": [
        {
          "indexed": false,
          "internalType": "uint256",
          "name": "_fromTokenId",
          "type": "uint256"
        },
        {
          "indexed": false,
          "internalType": "uint256",
          "name": "_toTokenId",
          "type": "uint256"
        }
      ],
      "name": "BatchMetadataUpdate",
      "type": "event"
    },
    {
      "anonymous": false,
      "inputs": [],
      "name": "EIP712DomainChanged",
      "type": "event"
    },
    {
      "anonymous": false,
      "inputs": [
        {
          "indexed": false,
          "internalType": "uint256",
          "name": "_tokenId",
          "type": "uint256"
        }
      ],
      "name": "MetadataUpdate",
      "type": "event"
    },
    {
      "anonymous": false,
      "inputs": [
        {
          "indexed": true,
          "internalType": "address",
          "name": "to",
          "type": "address"
        },
        {
          "indexed": true,
          "internalType": "uint256",
          "name": "tokenId",
          "type": "uint256"
        },
        {
          "indexed": false,
          "internalType": "string",
          "name": "tokenUri",
          "type": "string"
        }
      ],
      "name": "Minted",
      "type": "event"
    },
    {
      "anonymous": false,
      "inputs": [
        {
          "indexed": true,
          "internalType": "address",
          "name": "previousOwner",
          "type": "address"
        },
        {
          "indexed": true,
          "internalType": "address",
          "name": "newOwner",
          "type": "address"
        }
      ],
      "name": "OwnershipTransferred",
      "type": "event"
    },
    {
      "anonymous": false,
      "inputs": [
        {
          "indexed": true,
          "internalType": "address",
          "name": "relayer",
          "type": "address"
        },
        {
          "indexed": false,
          "internalType": "bool",
          "name": "allowed",
          "type": "bool"
        }
      ],
      "name": "RelayerUpdated",
      "type": "event"
    },
    {
      "anonymous": false,
      "inputs": [
        {
          "indexed": true,
          "internalType": "address",
          "name": "from",
          "type": "address"
        },
        {
          "indexed": true,
          "internalType": "address",
          "name": "to",
          "type": "address"
        },
        {
          "indexed": true,
          "internalType": "uint256",
          "name": "tokenId",
          "type": "uint256"
        }
      ],
      "name": "Transfer",
      "type": "event"
    },
    {
      "inputs": [],
      "name": "MINT_TYPEHASH",
      "outputs": [
        {
          "internalType": "bytes32",
          "name": "",
          "type": "bytes32"
        }
      ],
      "stateMutability": "view",
      "type": "function"
    },
    {
      "inputs": [
        {
          "internalType": "address",
          "name": "to",
          "type": "address"
        },
        {
          "internalType": "uint256",
          "name": "tokenId",
          "type": "uint256"
        }
      ],
      "name": "approve",
      "outputs": [],
      "stateMutability": "nonpayable",
      "type": "function"
    },
    {
      "inputs": [
        {
          "internalType": "address",
          "name": "owner",
          "type": "address"
        }
      ],
      "name": "balanceOf",
      "outputs": [
        {
          "internalType": "uint256",
          "name": "",
          "type": "uint256"
        }
      ],
      "stateMutability": "view",
      "type": "function"
    },
    {
      "inputs": [],
      "name": "eip712Domain",
      "outputs": [
        {
          "internalType": "bytes1",
          "name": "fields",
          "type": "bytes1"
        },
        {
          "internalType": "string",
          "name": "name",
          "type": "string"
        },
        {
          "internalType": "string",
          "name": "version",
          "type": "string"
        },
        {
          "internalType": "uint256",
          "name": "chainId",
          "type": "uint256"
        },
        {
          "internalType": "address",
          "name": "verifyingContract",
          "type": "address"
        },
        {
          "internalType": "bytes32",
          "name": "salt",
          "type": "bytes32"
        },
        {
          "internalType": "uint256[]",
          "name": "extensions",
          "type": "uint256[]"
        }
      ],
      "stateMutability": "view",
      "type": "function"
    },
    {
      "inputs": [
        {
          "internalType": "uint256",
          "name": "tokenId",
          "type": "uint256"
        }
      ],
      "name": "getApproved",
      "outputs": [
        {
          "internalType": "address",
          "name": "",
          "type": "address"
        }
      ],
      "stateMutability": "view",
      "type": "function"
    },
    {
      "inputs": [
        {
          "internalType": "address",
          "name": "owner",
          "type": "address"
        },
        {
          "internalType": "address",
          "name": "operator",
          "type": "address"
        }
      ],
      "name": "isApprovedForAll",
      "outputs": [
        {
          "internalType": "bool",
          "name": "",
          "type": "bool"
        }
      ],
      "stateMutability": "view",
      "type": "function"
    },
    {
      "inputs": [
        {
          "components": [
            {
              "internalType": "address",
              "name": "to",
              "type": "address"
            },
            {
              "internalType": "uint256",
              "name": "nonce",
              "type": "uint256"
            },
            {
              "internalType": "uint256",
              "name": "deadline",
              "type": "uint256"
            },
            {
              "internalType": "string",
              "name": "uri",
              "type": "string"
            }
          ],
          "internalType": "struct AccessNFTGasless.MintRequest",
          "name": "request",
          "type": "tuple"
        },
        {
          "internalType": "bytes",
          "name": "signature",
          "type": "bytes"
        }
      ],
      "name": "mintWithSignature",
      "outputs": [
        {
          "internalType": "uint256",
          "name": "",
          "type": "uint256"
        }
      ],
      "stateMutability": "nonpayable",
      "type": "function"
    },
    {
      "inputs": [],
      "name": "name",
      "outputs": [
        {
          "internalType": "string",
          "name": "",
          "type": "string"
        }
      ],
      "stateMutability": "view",
      "type": "function"
    },
    {
      "inputs": [
        {
          "internalType": "address",
          "name": "account",
          "type": "address"
        }
      ],
      "name": "nextNonce",
      "outputs": [
        {
          "internalType": "uint256",
          "name": "",
          "type": "uint256"
        }
      ],
      "stateMutability": "view",
      "type": "function"
    },
    {
      "inputs": [],
      "name": "owner",
      "outputs": [
        {
          "internalType": "address",
          "name": "",
          "type": "address"
        }
      ],
      "stateMutability": "view",
      "type": "function"
    },
    {
      "inputs": [
        {
          "internalType": "uint256",
          "name": "tokenId",
          "type": "uint256"
        }
      ],
      "name": "ownerOf",
      "outputs": [
        {
          "internalType": "address",
          "name": "",
          "type": "address"
        }
      ],
      "stateMutability": "view",
      "type": "function"
    },
    {
      "inputs": [
        {
          "internalType": "address",
          "name": "",
          "type": "address"
        }
      ],
      "name": "relayers",
      "outputs": [
        {
          "internalType": "bool",
          "name": "",
          "type": "bool"
        }
      ],
      "stateMutability": "view",
      "type": "function"
    },
    {
      "inputs": [],
      "name": "renounceOwnership",
      "outputs": [],
      "stateMutability": "nonpayable",
      "type": "function"
    },
    {
      "inputs": [
        {
          "internalType": "address",
          "name": "from",
          "type": "address"
        },
        {
          "internalType": "address",
          "name": "to",
          "type": "address"
        },
        {
          "internalType": "uint256",
          "name": "tokenId",
          "type": "uint256"
        }
      ],
      "name": "safeTransferFrom",
      "outputs": [],
      "stateMutability": "nonpayable",
      "type": "function"
    },
    {
      "inputs": [
        {
          "internalType": "address",
          "name": "from",
          "type": "address"
        },
        {
          "internalType": "address",
          "name": "to",
          "type": "address"
        },
        {
          "internalType": "uint256",
          "name": "tokenId",
          "type": "uint256"
        },
        {
          "internalType": "bytes",
          "name": "data",
          "type": "bytes"
        }
      ],
      "name": "safeTransferFrom",
      "outputs": [],
      "stateMutability": "nonpayable",
      "type": "function"
    },
    {
      "inputs": [
        {
          "internalType": "address",
          "name": "operator",
          "type": "address"
        },
        {
          "internalType": "bool",
          "name": "approved",
          "type": "bool"
        }
      ],
      "name": "setApprovalForAll",
      "outputs": [],
      "stateMutability": "nonpayable",
      "type": "function"
    },
    {
      "inputs": [
        {
          "internalType": "address",
          "name": "relayer",
          "type": "address"
        },
        {
          "internalType": "bool",
          "name": "allowed",
          "type": "bool"
        }
      ],
      "name": "setRelayer",
      "outputs": [],
      "stateMutability": "nonpayable",
      "type": "function"
    },
    {
      "inputs": [
        {
          "internalType": "bytes4",
          "name": "interfaceId",
          "type": "bytes4"
        }
      ],
      "name": "supportsInterface",
      "outputs": [
        {
          "internalType": "bool",
          "name": "",
          "type": "bool"
        }
      ],
      "stateMutability": "view",
      "type": "function"
    },
    {
      "inputs": [],
      "name": "symbol",
      "outputs": [
        {
          "internalType": "string",
          "name": "",
          "type": "string"
        }
      ],
      "stateMutability": "view",
      "type": "function"
    },
    {
      "inputs": [
        {
          "internalType": "uint256",
          "name": "tokenId",
          "type": "uint256"
        }
      ],
      "name": "tokenURI",
      "outputs": [
        {
          "internalType": "string",
          "name": "",
          "type": "string"
        }
      ],
      "stateMutability": "view",
      "type": "function"
    },
    {
      "inputs": [
        {
          "internalType": "address",
          "name": "from",
          "type": "address"
        },
        {
          "internalType": "address",
          "name": "to",
          "type": "address"
        },
        {
          "internalType": "uint256",
          "name": "tokenId",
          "type": "uint256"
        }
      ],
      "name": "transferFrom",
      "outputs": [],
      "stateMutability": "nonpayable",
      "type": "function"
    },
    {
      "inputs": [
        {
          "internalType": "address",
          "name": "newOwner",
          "type": "address"
        }
      ],
      "name": "transferOwnership",
      "outputs": [],
      "stateMutability": "nonpayable",
      "type": "function"
    }
  ],
  "bytecode": "0x6101606040523480156200001257600080fd5b506040516200499e3803806200499e8339818101604052810190620000389190620008b9565b336040518060400160405280601081526020017f4163636573734e46544761736c657373000000000000000000000000000000008152506040518060400160405280600181526020017f310000000000000000000000000000000000000000000000000000000000000081525085858160009081620000b8919062000bbd565b508060019081620000ca919062000bbd565b505050620000e3600783620003ec60201b90919060201c565b610120818152505062000101600882620003ec60201b90919060201c565b6101408181525050818051906020012060e08181525050808051906020012061010081815250504660a08181525050620001406200044460201b60201c565b608081815250503073ffffffffffffffffffffffffffffffffffffffff1660c08173ffffffffffffffffffffffffffffffffffffffff16815250505050600073ffffffffffffffffffffffffffffffffffffffff168173ffffffffffffffffffffffffffffffffffffffff1603620001f25760006040517f1e4fbdf7000000000000000000000000000000000000000000000000000000008152600401620001e9919062000cb5565b60405180910390fd5b6200020381620004a160201b60201c565b506000815103620002db576001600c6000620002246200056760201b60201c565b73ffffffffffffffffffffffffffffffffffffffff1673ffffffffffffffffffffffffffffffffffffffff16815260200190815260200160002060006101000a81548160ff021916908315150217905550620002856200056760201b60201c565b73ffffffffffffffffffffffffffffffffffffffff167f4b36b2e66f38ed349bec532105790177f1283bcbc094e6cd48565195d3033c436001604051620002cd919062000cef565b60405180910390a2620003e3565b60005b8151811015620003e1576001600c600084848151811062000304576200030362000d0c565b5b602002602001015173ffffffffffffffffffffffffffffffffffffffff1673ffffffffffffffffffffffffffffffffffffffff16815260200190815260200160002060006101000a81548160ff02191690831515021790555081818151811062000373576200037262000d0c565b5b602002602001015173ffffffffffffffffffffffffffffffffffffffff167f4b36b2e66f38ed349bec532105790177f1283bcbc094e6cd48565195d3033c436001604051620003c3919062000cef565b60405180910390a28080620003d89062000d6a565b915050620002de565b505b50505062000f58565b600060208351101562000412576200040a836200056f60201b60201c565b90506200043e565b826200042483620005dc60201b60201c565b600001908162000435919062000bbd565b5060ff60001b90505b92915050565b60007f8b73c3c69bb8fe3d512ecc4cf759cc79239f7b179b0ffacaa9a75d522b39400f60e0516101005146306040516020016200048695949392919062000de3565b60405160208183030381529060405280519060200120905090565b6000600960009054906101000a900473ffffffffffffffffffffffffffffffffffffffff16905081600960006101000a81548173ffffffffffffffffffffffffffffffffffffffff021916908373ffffffffffffffffffffffffffffffffffffffff1602179055508173ffffffffffffffffffffffffffffffffffffffff168173ffffffffffffffffffffffffffffffffffffffff167f8be0079c531659141344cd1fd0a4f28419497f9722a3daafe3b4186f6b6457e060405160405180910390a35050565b600033905090565b600080829050601f81511115620005bf57826040517f305a27a9000000000000000000000000000000000000000000000000000000008152600401620005b6919062000e92565b60405180910390fd5b805181620005cd9062000ee8565b60001c1760001b915050919050565b6000819050919050565b6000604051905090565b600080fd5b600080fd5b600080fd5b600080fd5b6000601f19601f8301169050919050565b7f4e487b7100000000000000000000000000000000000000000000000000000000600052604160045260246000fd5b6200064f8262000604565b810181811067ffffffffffffffff8211171562000671576200067062000615565b5b80604052505050565b600062000686620005e6565b905062000694828262000644565b919050565b600067ffffffffffffffff821115620006b757620006b662000615565b5b620006c28262000604565b9050602081019050919050565b60005b83811015620006ef578082015181840152602081019050620006d2565b60008484015250505050565b6000620007126200070c8462000699565b6200067a565b905082815260208101848484011115620007315762000730620005ff565b5b6200073e848285620006cf565b509392505050565b600082601f8301126200075e576200075d620005fa565b5b815162000770848260208601620006fb565b91505092915050565b600067ffffffffffffffff82111562000797576200079662000615565b5b602082029050602081019050919050565b600080fd5b600073ffffffffffffffffffffffffffffffffffffffff82169050919050565b6000620007da82620007ad565b9050919050565b620007ec81620007cd565b8114620007f857600080fd5b50565b6000815190506200080c81620007e1565b92915050565b600062000829620008238462000779565b6200067a565b905080838252602082019050602084028301858111156200084f576200084e620007a8565b5b835b818110156200087c5780620008678882620007fb565b84526020840193505060208101905062000851565b5050509392505050565b600082601f8301126200089e576200089d620005fa565b5b8151620008b084826020860162000812565b91505092915050565b600080600060608486031215620008d557620008d4620005f0565b5b600084015167ffffffffffffffff811115620008f657620008f5620005f5565b5b620009048682870162000746565b935050602084015167ffffffffffffffff811115620009285762000927620005f5565b5b620009368682870162000746565b925050604084015167ffffffffffffffff8111156200095a5762000959620005f5565b5b620009688682870162000886565b9150509250925092565b600081519050919050565b7f4e487b7100000000000000000000000000000000000000000000000000000000600052602260045260246000fd5b60006002820490506001821680620009c557607f821691505b602082108103620009db57620009da6200097d565b5b50919050565b60008190508160005260206000209050919050565b60006020601f8301049050919050565b600082821b905092915050565b60006008830262000a457fffffffffffffffffffffffffffffffffffffffffffffffffffffffffffffffff8262000a06565b62000a51868362000a06565b95508019841693508086168417925050509392505050565b6000819050919050565b6000819050919050565b600062000a9e62000a9862000a928462000a69565b62000a73565b62000a69565b9050919050565b6000819050919050565b62000aba8362000a7d565b62000ad262000ac98262000aa5565b84845462000a13565b825550505050565b600090565b62000ae962000ada565b62000af681848462000aaf565b505050565b5b8181101562000b1e5762000b1260008262000adf565b60018101905062000afc565b5050565b601f82111562000b6d5762000b3781620009e1565b62000b4284620009f6565b8101602085101562000b52578190505b62000b6a62000b6185620009f6565b83018262000afb565b50505b505050565b600082821c905092915050565b600062000b926000198460080262000b72565b1980831691505092915050565b600062000bad838362000b7f565b9150826002028217905092915050565b62000bc88262000972565b67ffffffffffffffff81111562000be45762000be362000615565b5b62000bf08254620009ac565b62000bfd82828562000b22565b600060209050601f83116001811462000c35576000841562000c20578287015190505b62000c2c858262000b9f565b86555062000c9c565b601f19841662000c4586620009e1565b60005b8281101562000c6f5784890151825560018201915060208501945060208101905062000c48565b8683101562000c8f578489015162000c8b601f89168262000b7f565b8355505b6001600288020188555050505b505050505050565b62000caf81620007cd565b82525050565b600060208201905062000ccc600083018462000ca4565b92915050565b60008115159050919050565b62000ce98162000cd2565b82525050565b600060208201905062000d06600083018462000cde565b92915050565b7f4e487b7100000000000000000000000000000000000000000000000000000000600052603260045260246000fd5b7f4e487b7100000000000000000000000000000000000000000000000000000000600052601160045260246000fd5b600062000d778262000a69565b91507fffffffffffffffffffffffffffffffffffffffffffffffffffffffffffffffff820362000dac5762000dab62000d3b565b5b600182019050919050565b6000819050919050565b62000dcc8162000db7565b82525050565b62000ddd8162000a69565b82525050565b600060a08201905062000dfa600083018862000dc1565b62000e09602083018762000dc1565b62000e18604083018662000dc1565b62000e27606083018562000dd2565b62000e36608083018462000ca4565b9695505050505050565b600082825260208201905092915050565b600062000e5e8262000972565b62000e6a818562000e40565b935062000e7c818560208601620006cf565b62000e878162000604565b840191505092915050565b6000602082019050818103600083015262000eae818462000e51565b905092915050565b600081519050919050565b6000819050602082019050919050565b600062000edf825162000db7565b80915050919050565b600062000ef58262000eb6565b8262000f018462000ec1565b905062000f0e8162000ed1565b9250602082101562000f515762000f4c7fffffffffffffffffffffffffffffffffffffffffffffffffffffffffffffffff8360200360080262000a06565b831692505b5050919050565b60805160a05160c05160e0516101005161012051610140516139eb62000fb36000396000611716015260006116db015260006121e5015260006121c401526000611e1c01526000611e7201526000611e9b01526139eb6000f3fe608060405234801561001057600080fd5b50600436106101425760003560e01c8063723cc039116100b8578063b88d4fde1161007c578063b88d4fde1461038f578063c87b56dd146103ab578063e985e9c5146103db578063ecd8dc3a1461040b578063f2fde38b14610427578063f76fc35e1461044357610142565b8063723cc039146102e357806384b0196e146103135780638da5cb5b1461033757806395d89b4114610355578063a22cb4651461037357610142565b806323b872dd1161010a57806323b872dd1461021157806342842e0e1461022d5780635300f841146102495780636352211e1461027957806370a08231146102a9578063715018a6146102d957610142565b806301ffc9a71461014757806306fdde0314610177578063081812fc14610195578063095ea7b3146101c55780630cd55abf146101e1575b600080fd5b610161600480360381019061015c9190612865565b610461565b60405161016e91906128ad565b60405180910390f35b61017f6104c2565b60405161018c9190612958565b60405180910390f35b6101af60048036038101906101aa91906129b0565b610554565b6040516101bc9190612a1e565b60405180910390f35b6101df60048036038101906101da9190612a65565b610570565b005b6101fb60048036038101906101f69190612aa5565b610586565b6040516102089190612ae1565b60405180910390f35b61022b60048036038101906102269190612afc565b6105cf565b005b61024760048036038101906102429190612afc565b6106d1565b005b610263600480360381019061025e9190612aa5565b6106f1565b60405161027091906128ad565b60405180910390f35b610293600480360381019061028e91906129b0565b610711565b6040516102a09190612a1e565b60405180910390f35b6102c360048036038101906102be9190612aa5565b610723565b6040516102d09190612ae1565b60405180910390f35b6102e16107dd565b005b6102fd60048036038101906102f89190612bd8565b6107f1565b60405161030a9190612ae1565b60405180910390f35b61031b610c56565b60405161032e9796959493929190612d66565b60405180910390f35b61033f610d00565b60405161034c9190612a1e565b60405180910390f35b61035d610d2a565b60405161036a9190612958565b60405180910390f35b61038d60048036038101906103889190612e16565b610dbc565b005b6103a960048036038101906103a49190612f86565b610dd2565b005b6103c560048036038101906103c091906129b0565b610df7565b6040516103d29190612958565b60405180910390f35b6103f560048036038101906103f09190613009565b610f0a565b60405161040291906128ad565b60405180910390f35b61042560048036038101906104209190612e16565b610f9e565b005b610441600480360381019061043c9190612aa5565b61104f565b005b61044b6110d5565b6040516104589190613049565b60405180910390f35b6000634906490660e01b7bffffffffffffffffffffffffffffffffffffffffffffffffffffffff1916827bffffffffffffffffffffffffffffffffffffffffffffffffffffffff191614806104bb57506104ba826110f9565b5b9050919050565b6060600080546104d190613093565b80601f01602080910402602001604051908101604052809291908181526020018280546104fd90613093565b801561054a5780601f1061051f5761010080835404028352916020019161054a565b820191906000526020600020905b81548152906001019060200180831161052d57829003601f168201915b5050505050905090565b600061055f826111db565b5061056982611263565b9050919050565b610582828261057d6112a0565b6112a8565b5050565b6000600b60008373ffffffffffffffffffffffffffffffffffffffff1673ffffffffffffffffffffffffffffffffffffffff168152602001908152602001600020549050919050565b600073ffffffffffffffffffffffffffffffffffffffff168273ffffffffffffffffffffffffffffffffffffffff16036106415760006040517f64a0ae920000000000000000000000000000000000000000000000000000000081526004016106389190612a1e565b60405180910390fd5b600061065583836106506112a0565b6112ba565b90508373ffffffffffffffffffffffffffffffffffffffff168173ffffffffffffffffffffffffffffffffffffffff16146106cb578382826040517f64283d7b0000000000000000000000000000000000000000000000000000000081526004016106c2939291906130c4565b60405180910390fd5b50505050565b6106ec83838360405180602001604052806000815250610dd2565b505050565b600c6020528060005260406000206000915054906101000a900460ff1681565b600061071c826111db565b9050919050565b60008073ffffffffffffffffffffffffffffffffffffffff168273ffffffffffffffffffffffffffffffffffffffff16036107965760006040517f89c62b6400000000000000000000000000000000000000000000000000000000815260040161078d9190612a1e565b60405180910390fd5b600360008373ffffffffffffffffffffffffffffffffffffffff1673ffffffffffffffffffffffffffffffffffffffff168152602001908152602001600020549050919050565b6107e56114d4565b6107ef600061155b565b565b6000600c60006107ff6112a0565b73ffffffffffffffffffffffffffffffffffffffff1673ffffffffffffffffffffffffffffffffffffffff16815260200190815260200160002060009054906101000a900460ff16610886576040517f08c379a000000000000000000000000000000000000000000000000000000000815260040161087d9061316d565b60405180910390fd5b42846040013510156108cd576040517f08c379a00000000000000000000000000000000000000000000000000000000081526004016108c4906131ff565b60405180910390fd5b600b60008560000160208101906108e49190612aa5565b73ffffffffffffffffffffffffffffffffffffffff1673ffffffffffffffffffffffffffffffffffffffff16815260200190815260200160002054846020013514610964576040517f08c379a000000000000000000000000000000000000000000000000000000000815260040161095b9061326b565b60405180910390fd5b60007f24c9f5fd5d6cd3ab67d9f62c9971ec985ff33bf38cd7d6772276bdf80c90ddbc85600001602081019061099a9190612aa5565b866020013587604001358880606001906109b4919061329a565b6040516109c292919061332d565b60405180910390206040516020016109de959493929190613346565b6040516020818303038152906040528051906020012090506000610a0182611621565b90506000610a538287878080601f016020809104026020016040519081016040528093929190818152602001838380828437600081840152601f19601f8201169050808301925050505050505061163b565b9050866000016020810190610a689190612aa5565b73ffffffffffffffffffffffffffffffffffffffff168173ffffffffffffffffffffffffffffffffffffffff1614610ad5576040517f08c379a0000000000000000000000000000000000000000000000000000000008152600401610acc906133e5565b60405180910390fd5b6001600b6000896000016020810190610aee9190612aa5565b73ffffffffffffffffffffffffffffffffffffffff1673ffffffffffffffffffffffffffffffffffffffff1681526020019081526020016000206000828254610b379190613434565b925050819055506001600a6000828254610b519190613434565b925050819055506000600a549050610b7b886000016020810190610b759190612aa5565b82611658565b610bd781898060600190610b8f919061329a565b8080601f016020809104026020016040519081016040528093929190818152602001838380828437600081840152601f19601f82011690508083019250505050505050611676565b80886000016020810190610beb9190612aa5565b73ffffffffffffffffffffffffffffffffffffffff167fe7cd4ce7f2a465edc730269a1305e8a48bad821e8fb7e152ec413829c01a53c48a8060600190610c32919061329a565b604051610c40929190613495565b60405180910390a3809450505050509392505050565b600060608060008060006060610c6a6116d2565b610c7261170d565b46306000801b600067ffffffffffffffff811115610c9357610c92612e5b565b5b604051908082528060200260200182016040528015610cc15781602001602082028036833780820191505090505b507f0f00000000000000000000000000000000000000000000000000000000000000959493929190965096509650965096509650965090919293949596565b6000600960009054906101000a900473ffffffffffffffffffffffffffffffffffffffff16905090565b606060018054610d3990613093565b80601f0160208091040260200160405190810160405280929190818152602001828054610d6590613093565b8015610db25780601f10610d8757610100808354040283529160200191610db2565b820191906000526020600020905b815481529060010190602001808311610d9557829003601f168201915b5050505050905090565b610dce610dc76112a0565b8383611748565b5050565b610ddd8484846105cf565b610df1610de86112a0565b858585856118b7565b50505050565b6060610e02826111db565b506000600660008481526020019081526020016000208054610e2390613093565b80601f0160208091040260200160405190810160405280929190818152602001828054610e4f90613093565b8015610e9c5780601f10610e7157610100808354040283529160200191610e9c565b820191906000526020600020905b815481529060010190602001808311610e7f57829003601f168201915b505050505090506000610ead611a68565b90506000815103610ec2578192505050610f05565b600082511115610ef7578082604051602001610edf9291906134f5565b60405160208183030381529060405292505050610f05565b610f0084611a7f565b925050505b919050565b6000600560008473ffffffffffffffffffffffffffffffffffffffff1673ffffffffffffffffffffffffffffffffffffffff16815260200190815260200160002060008373ffffffffffffffffffffffffffffffffffffffff1673ffffffffffffffffffffffffffffffffffffffff16815260200190815260200160002060009054906101000a900460ff16905092915050565b610fa66114d4565b80600c60008473ffffffffffffffffffffffffffffffffffffffff1673ffffffffffffffffffffffffffffffffffffffff16815260200190815260200160002060006101000a81548160ff0219169083151502179055508173ffffffffffffffffffffffffffffffffffffffff167f4b36b2e66f38ed349bec532105790177f1283bcbc094e6cd48565195d3033c438260405161104391906128ad565b60405180910390a25050565b6110576114d4565b600073ffffffffffffffffffffffffffffffffffffffff168173ffffffffffffffffffffffffffffffffffffffff16036110c95760006040517f1e4fbdf70000000000000000000000000000000000000000000000000000000081526004016110c09190612a1e565b60405180910390fd5b6110d28161155b565b50565b7f24c9f5fd5d6cd3ab67d9f62c9971ec985ff33bf38cd7d6772276bdf80c90ddbc81565b60007f80ac58cd000000000000000000000000000000000000000000000000000000007bffffffffffffffffffffffffffffffffffffffffffffffffffffffff1916827bffffffffffffffffffffffffffffffffffffffffffffffffffffffff191614806111c457507f5b5e139f000000000000000000000000000000000000000000000000000000007bffffffffffffffffffffffffffffffffffffffffffffffffffffffff1916827bffffffffffffffffffffffffffffffffffffffffffffffffffffffff1916145b806111d457506111d382611ae8565b5b9050919050565b6000806111e783611b52565b9050600073ffffffffffffffffffffffffffffffffffffffff168173ffffffffffffffffffffffffffffffffffffffff160361125a57826040517f7e2732890000000000000000000000000000000000000000000000000000000081526004016112519190612ae1565b60405180910390fd5b80915050919050565b60006004600083815260200190815260200160002060009054906101000a900473ffffffffffffffffffffffffffffffffffffffff169050919050565b600033905090565b6112b58383836001611b8f565b505050565b6000806112c684611b52565b9050600073ffffffffffffffffffffffffffffffffffffffff168373ffffffffffffffffffffffffffffffffffffffff161461130857611307818486611d54565b5b600073ffffffffffffffffffffffffffffffffffffffff168173ffffffffffffffffffffffffffffffffffffffff16146113995761134a600085600080611b8f565b6001600360008373ffffffffffffffffffffffffffffffffffffffff1673ffffffffffffffffffffffffffffffffffffffff168152602001908152602001600020600082825403925050819055505b600073ffffffffffffffffffffffffffffffffffffffff168573ffffffffffffffffffffffffffffffffffffffff161461141c576001600360008773ffffffffffffffffffffffffffffffffffffffff1673ffffffffffffffffffffffffffffffffffffffff168152602001908152602001600020600082825401925050819055505b846002600086815260200190815260200160002060006101000a81548173ffffffffffffffffffffffffffffffffffffffff021916908373ffffffffffffffffffffffffffffffffffffffff160217905550838573ffffffffffffffffffffffffffffffffffffffff168273ffffffffffffffffffffffffffffffffffffffff167fddf252ad1be2c89b69c2b068fc378daa952ba7f163c4a11628f55a4df523b3ef60405160405180910390a4809150509392505050565b6114dc6112a0565b73ffffffffffffffffffffffffffffffffffffffff166114fa610d00565b73ffffffffffffffffffffffffffffffffffffffff16146115595761151d6112a0565b6040517f118cdaa70000000000000000000000000000000000000000000000000000000081526004016115509190612a1e565b60405180910390fd5b565b6000600960009054906101000a900473ffffffffffffffffffffffffffffffffffffffff16905081600960006101000a81548173ffffffffffffffffffffffffffffffffffffffff021916908373ffffffffffffffffffffffffffffffffffffffff1602179055508173ffffffffffffffffffffffffffffffffffffffff168173ffffffffffffffffffffffffffffffffffffffff167f8be0079c531659141344cd1fd0a4f28419497f9722a3daafe3b4186f6b6457e060405160405180910390a35050565b600061163461162e611e18565b83611ecf565b9050919050565b60006116508284611f1090919063ffffffff16565b905092915050565b611672828260405180602001604052806000815250611f3c565b5050565b8060066000848152602001908152602001600020908161169691906136c5565b507ff8e1a15aba9398e019f0b49df1a4fde98ee17ae345cb5f6b5e2c27f5033e8ce7826040516116c69190612ae1565b60405180910390a15050565b606061170860077f0000000000000000000000000000000000000000000000000000000000000000611f6090919063ffffffff16565b905090565b606061174360087f0000000000000000000000000000000000000000000000000000000000000000611f6090919063ffffffff16565b905090565b600073ffffffffffffffffffffffffffffffffffffffff168273ffffffffffffffffffffffffffffffffffffffff16036117b957816040517f5b08ba180000000000000000000000000000000000000000000000000000000081526004016117b09190612a1e565b60405180910390fd5b80600560008573ffffffffffffffffffffffffffffffffffffffff1673ffffffffffffffffffffffffffffffffffffffff16815260200190815260200160002060008473ffffffffffffffffffffffffffffffffffffffff1673ffffffffffffffffffffffffffffffffffffffff16815260200190815260200160002060006101000a81548160ff0219169083151502179055508173ffffffffffffffffffffffffffffffffffffffff168373ffffffffffffffffffffffffffffffffffffffff167f17307eab39ab6107e8899845ad3d59bd9653f200f220920489ca2b5937696c31836040516118aa91906128ad565b60405180910390a3505050565b60008373ffffffffffffffffffffffffffffffffffffffff163b1115611a61578273ffffffffffffffffffffffffffffffffffffffff1663150b7a02868685856040518563ffffffff1660e01b815260040161191694939291906137ec565b6020604051808303816000875af192505050801561195257506040513d601f19601f8201168201806040525081019061194f919061384d565b60015b6119d6573d8060008114611982576040519150601f19603f3d011682016040523d82523d6000602084013e611987565b606091505b5060008151036119ce57836040517f64a0ae920000000000000000000000000000000000000000000000000000000081526004016119c59190612a1e565b60405180910390fd5b805160208201fd5b63150b7a0260e01b7bffffffffffffffffffffffffffffffffffffffffffffffffffffffff1916817bffffffffffffffffffffffffffffffffffffffffffffffffffffffff191614611a5f57836040517f64a0ae92000000000000000000000000000000000000000000000000000000008152600401611a569190612a1e565b60405180910390fd5b505b5050505050565b606060405180602001604052806000815250905090565b6060611a8a826111db565b506000611a95611a68565b90506000815111611ab55760405180602001604052806000815250611ae0565b80611abf84612010565b604051602001611ad09291906134f5565b6040516020818303038152906040525b915050919050565b60007f01ffc9a7000000000000000000000000000000000000000000000000000000007bffffffffffffffffffffffffffffffffffffffffffffffffffffffff1916827bffffffffffffffffffffffffffffffffffffffffffffffffffffffff1916149050919050565b60006002600083815260200190815260200160002060009054906101000a900473ffffffffffffffffffffffffffffffffffffffff169050919050565b8080611bc85750600073ffffffffffffffffffffffffffffffffffffffff168273ffffffffffffffffffffffffffffffffffffffff1614155b15611cfc576000611bd8846111db565b9050600073ffffffffffffffffffffffffffffffffffffffff168373ffffffffffffffffffffffffffffffffffffffff1614158015611c4357508273ffffffffffffffffffffffffffffffffffffffff168173ffffffffffffffffffffffffffffffffffffffff1614155b8015611c565750611c548184610f0a565b155b15611c9857826040517fa9fbf51f000000000000000000000000000000000000000000000000000000008152600401611c8f9190612a1e565b60405180910390fd5b8115611cfa57838573ffffffffffffffffffffffffffffffffffffffff168273ffffffffffffffffffffffffffffffffffffffff167f8c5be1e5ebec7d5bd14f71427d1e84f3dd0314c0f7b2291e5b200ac8c7c3b92560405160405180910390a45b505b836004600085815260200190815260200160002060006101000a81548173ffffffffffffffffffffffffffffffffffffffff021916908373ffffffffffffffffffffffffffffffffffffffff16021790555050505050565b611d5f8383836120de565b611e1357600073ffffffffffffffffffffffffffffffffffffffff168373ffffffffffffffffffffffffffffffffffffffff1603611dd457806040517f7e273289000000000000000000000000000000000000000000000000000000008152600401611dcb9190612ae1565b60405180910390fd5b81816040517f177e802f000000000000000000000000000000000000000000000000000000008152600401611e0a92919061387a565b60405180910390fd5b505050565b60007f000000000000000000000000000000000000000000000000000000000000000073ffffffffffffffffffffffffffffffffffffffff163073ffffffffffffffffffffffffffffffffffffffff16148015611e9457507f000000000000000000000000000000000000000000000000000000000000000046145b15611ec1577f00000000000000000000000000000000000000000000000000000000000000009050611ecc565b611ec961219f565b90505b90565b60006040517f190100000000000000000000000000000000000000000000000000000000000081528360028201528260228201526042812091505092915050565b600080600080611f208686612235565b925092509250611f308282612291565b82935050505092915050565b611f4683836123f5565b611f5b611f516112a0565b60008585856118b7565b505050565b606060ff60001b8314611f7d57611f76836124ee565b905061200a565b818054611f8990613093565b80601f0160208091040260200160405190810160405280929190818152602001828054611fb590613093565b80156120025780601f10611fd757610100808354040283529160200191612002565b820191906000526020600020905b815481529060010190602001808311611fe557829003601f168201915b505050505090505b92915050565b60606000600161201f84612562565b01905060008167ffffffffffffffff81111561203e5761203d612e5b565b5b6040519080825280601f01601f1916602001820160405280156120705781602001600182028036833780820191505090505b509050600082602083010190505b6001156120d3578080600190039150507f3031323334353637383961626364656600000000000000000000000000000000600a86061a8153600a85816120c7576120c66138a3565b5b0494506000850361207e575b819350505050919050565b60008073ffffffffffffffffffffffffffffffffffffffff168373ffffffffffffffffffffffffffffffffffffffff161415801561219657508273ffffffffffffffffffffffffffffffffffffffff168473ffffffffffffffffffffffffffffffffffffffff16148061215757506121568484610f0a565b5b8061219557508273ffffffffffffffffffffffffffffffffffffffff1661217d83611263565b73ffffffffffffffffffffffffffffffffffffffff16145b5b90509392505050565b60007f8b73c3c69bb8fe3d512ecc4cf759cc79239f7b179b0ffacaa9a75d522b39400f7f00000000000000000000000000000000000000000000000000000000000000007f0000000000000000000000000000000000000000000000000000000000000000463060405160200161221a9594939291906138d2565b60405160208183030381529060405280519060200120905090565b6000806000604184510361227a5760008060006020870151925060408701519150606087015160001a905061226c888285856126b5565b95509550955050505061228a565b60006002855160001b9250925092505b9250925092565b600060038111156122a5576122a4613925565b5b8260038111156122b8576122b7613925565b5b03156123f157600160038111156122d2576122d1613925565b5b8260038111156122e5576122e4613925565b5b0361231c576040517ff645eedf00000000000000000000000000000000000000000000000000000000815260040160405180910390fd5b600260038111156123305761232f613925565b5b82600381111561234357612342613925565b5b03612388578060001c6040517ffce698f700000000000000000000000000000000000000000000000000000000815260040161237f9190612ae1565b60405180910390fd5b60038081111561239b5761239a613925565b5b8260038111156123ae576123ad613925565b5b036123f057806040517fd78bce0c0000000000000000000000000000000000000000000000000000000081526004016123e79190613049565b60405180910390fd5b5b5050565b600073ffffffffffffffffffffffffffffffffffffffff168273ffffffffffffffffffffffffffffffffffffffff16036124675760006040517f64a0ae9200000000000000000000000000000000000000000000000000000000815260040161245e9190612a1e565b60405180910390fd5b6000612475838360006112ba565b9050600073ffffffffffffffffffffffffffffffffffffffff168173ffffffffffffffffffffffffffffffffffffffff16146124e95760006040517f73c6ac6e0000000000000000000000000000000000000000000000000000000081526004016124e09190612a1e565b60405180910390fd5b505050565b606060006124fb836127a9565b90506000602067ffffffffffffffff81111561251a57612519612e5b565b5b6040519080825280601f01601f19166020018201604052801561254c5781602001600182028036833780820191505090505b5090508181528360208201528092505050919050565b600080600090507a184f03e93ff9f4daa797ed6e38ed64bf6a1f01000000000000000083106125c0577a184f03e93ff9f4daa797ed6e38ed64bf6a1f01000000000000000083816125b6576125b56138a3565b5b0492506040810190505b6d04ee2d6d415b85acef810000000083106125fd576d04ee2d6d415b85acef810000000083816125f3576125f26138a3565b5b0492506020810190505b662386f26fc10000831061262c57662386f26fc100008381612622576126216138a3565b5b0492506010810190505b6305f5e1008310612655576305f5e100838161264b5761264a6138a3565b5b0492506008810190505b612710831061267a5761271083816126705761266f6138a3565b5b0492506004810190505b6064831061269d5760648381612693576126926138a3565b5b0492506002810190505b600a83106126ac576001810190505b80915050919050565b60008060007f7fffffffffffffffffffffffffffffff5d576e7357a4501ddfe92f46681b20a08460001c11156126f557600060038592509250925061279f565b60006001888888886040516000815260200160405260405161271a9493929190613970565b6020604051602081039080840390855afa15801561273c573d6000803e3d6000fd5b505050602060405103519050600073ffffffffffffffffffffffffffffffffffffffff168173ffffffffffffffffffffffffffffffffffffffff160361279057600060016000801b9350935093505061279f565b8060008060001b935093509350505b9450945094915050565b60008060ff8360001c169050601f8111156127f0576040517fb3512b0c00000000000000000000000000000000000000000000000000000000815260040160405180910390fd5b80915050919050565b6000604051905090565b600080fd5b600080fd5b60007fffffffff0000000000000000000000000000000000000000000000000000000082169050919050565b6128428161280d565b811461284d57600080fd5b50565b60008135905061285f81612839565b92915050565b60006020828403121561287b5761287a612803565b5b600061288984828501612850565b91505092915050565b60008115159050919050565b6128a781612892565b82525050565b60006020820190506128c2600083018461289e565b92915050565b600081519050919050565b600082825260208201905092915050565b60005b838110156129025780820151818401526020810190506128e7565b60008484015250505050565b6000601f19601f8301169050919050565b600061292a826128c8565b61293481856128d3565b93506129448185602086016128e4565b61294d8161290e565b840191505092915050565b60006020820190508181036000830152612972818461291f565b905092915050565b6000819050919050565b61298d8161297a565b811461299857600080fd5b50565b6000813590506129aa81612984565b92915050565b6000602082840312156129c6576129c5612803565b5b60006129d48482850161299b565b91505092915050565b600073ffffffffffffffffffffffffffffffffffffffff82169050919050565b6000612a08826129dd565b9050919050565b612a18816129fd565b82525050565b6000602082019050612a336000830184612a0f565b92915050565b612a42816129fd565b8114612a4d57600080fd5b50565b600081359050612a5f81612a39565b92915050565b60008060408385031215612a7c57612a7b612803565b5b6000612a8a85828601612a50565b9250506020612a9b8582860161299b565b9150509250929050565b600060208284031215612abb57612aba612803565b5b6000612ac984828501612a50565b91505092915050565b612adb8161297a565b82525050565b6000602082019050612af66000830184612ad2565b92915050565b600080600060608486031215612b1557612b14612803565b5b6000612b2386828701612a50565b9350506020612b3486828701612a50565b9250506040612b458682870161299b565b9150509250925092565b600080fd5b600060808284031215612b6a57612b69612b4f565b5b81905092915050565b600080fd5b600080fd5b600080fd5b60008083601f840112612b9857612b97612b73565b5b8235905067ffffffffffffffff811115612bb557612bb4612b78565b5b602083019150836001820283011115612bd157612bd0612b7d565b5b9250929050565b600080600060408486031215612bf157612bf0612803565b5b600084013567ffffffffffffffff811115612c0f57612c0e612808565b5b612c1b86828701612b54565b935050602084013567ffffffffffffffff811115612c3c57612c3b612808565b5b612c4886828701612b82565b92509250509250925092565b60007fff0000000000000000000000000000000000000000000000000000000000000082169050919050565b612c8981612c54565b82525050565b6000819050919050565b612ca281612c8f565b82525050565b600081519050919050565b600082825260208201905092915050565b6000819050602082019050919050565b612cdd8161297a565b82525050565b6000612cef8383612cd4565b60208301905092915050565b6000602082019050919050565b6000612d1382612ca8565b612d1d8185612cb3565b9350612d2883612cc4565b8060005b83811015612d59578151612d408882612ce3565b9750612d4b83612cfb565b925050600181019050612d2c565b5085935050505092915050565b600060e082019050612d7b600083018a612c80565b8181036020830152612d8d818961291f565b90508181036040830152612da1818861291f565b9050612db06060830187612ad2565b612dbd6080830186612a0f565b612dca60a0830185612c99565b81810360c0830152612ddc8184612d08565b905098975050505050505050565b612df381612892565b8114612dfe57600080fd5b50565b600081359050612e1081612dea565b92915050565b60008060408385031215612e2d57612e2c612803565b5b6000612e3b85828601612a50565b9250506020612e4c85828601612e01565b9150509250929050565b600080fd5b7f4e487b7100000000000000000000000000000000000000000000000000000000600052604160045260246000fd5b612e938261290e565b810181811067ffffffffffffffff82111715612eb257612eb1612e5b565b5b80604052505050565b6000612ec56127f9565b9050612ed18282612e8a565b919050565b600067ffffffffffffffff821115612ef157612ef0612e5b565b5b612efa8261290e565b9050602081019050919050565b82818337600083830152505050565b6000612f29612f2484612ed6565b612ebb565b905082815260208101848484011115612f4557612f44612e56565b5b612f50848285612f07565b509392505050565b600082601f830112612f6d57612f6c612b73565b5b8135612f7d848260208601612f16565b91505092915050565b60008060008060808587031215612fa057612f9f612803565b5b6000612fae87828801612a50565b9450506020612fbf87828801612a50565b9350506040612fd08782880161299b565b925050606085013567ffffffffffffffff811115612ff157612ff0612808565b5b612ffd87828801612f58565b91505092959194509250565b600080604083850312156130205761301f612803565b5b600061302e85828601612a50565b925050602061303f85828601612a50565b9150509250929050565b600060208201905061305e6000830184612c99565b92915050565b7f4e487b7100000000000000000000000000000000000000000000000000000000600052602260045260246000fd5b600060028204905060018216806130ab57607f821691505b6020821081036130be576130bd613064565b5b50919050565b60006060820190506130d96000830186612a0f565b6130e66020830185612ad2565b6130f36040830184612a0f565b949350505050565b7f4163636573734e46544761736c6573733a2063616c6c6572206973206e6f742060008201527f616e20617574686f72697a65642072656c617965720000000000000000000000602082015250565b60006131576035836128d3565b9150613162826130fb565b604082019050919050565b600060208201905081810360008301526131868161314a565b9050919050565b7f4163636573734e46544761736c6573733a207369676e6174757265206578706960008201527f7265640000000000000000000000000000000000000000000000000000000000602082015250565b60006131e96023836128d3565b91506131f48261318d565b604082019050919050565b60006020820190508181036000830152613218816131dc565b9050919050565b7f4163636573734e46544761736c6573733a20696e76616c6964206e6f6e636500600082015250565b6000613255601f836128d3565b91506132608261321f565b602082019050919050565b6000602082019050818103600083015261328481613248565b9050919050565b600080fd5b600080fd5b600080fd5b600080833560016020038436030381126132b7576132b661328b565b5b80840192508235915067ffffffffffffffff8211156132d9576132d8613290565b5b6020830192506001820236038313156132f5576132f4613295565b5b509250929050565b600081905092915050565b600061331483856132fd565b9350613321838584612f07565b82840190509392505050565b600061333a828486613308565b91508190509392505050565b600060a08201905061335b6000830188612c99565b6133686020830187612a0f565b6133756040830186612ad2565b6133826060830185612ad2565b61338f6080830184612c99565b9695505050505050565b7f4163636573734e46544761736c6573733a20696e76616c6964207369676e6572600082015250565b60006133cf6020836128d3565b91506133da82613399565b602082019050919050565b600060208201905081810360008301526133fe816133c2565b9050919050565b7f4e487b7100000000000000000000000000000000000000000000000000000000600052601160045260246000fd5b600061343f8261297a565b915061344a8361297a565b925082820190508082111561346257613461613405565b5b92915050565b600061347483856128d3565b9350613481838584612f07565b61348a8361290e565b840190509392505050565b600060208201905081810360008301526134b0818486613468565b90509392505050565b600081905092915050565b60006134cf826128c8565b6134d981856134b9565b93506134e98185602086016128e4565b80840191505092915050565b600061350182856134c4565b915061350d82846134c4565b91508190509392505050565b60008190508160005260206000209050919050565b60006020601f8301049050919050565b600082821b905092915050565b60006008830261357b7fffffffffffffffffffffffffffffffffffffffffffffffffffffffffffffffff8261353e565b613585868361353e565b95508019841693508086168417925050509392505050565b6000819050919050565b60006135c26135bd6135b88461297a565b61359d565b61297a565b9050919050565b6000819050919050565b6135dc836135a7565b6135f06135e8826135c9565b84845461354b565b825550505050565b600090565b6136056135f8565b6136108184846135d3565b505050565b5b81811015613634576136296000826135fd565b600181019050613616565b5050565b601f8211156136795761364a81613519565b6136538461352e565b81016020851015613662578190505b61367661366e8561352e565b830182613615565b50505b505050565b600082821c905092915050565b600061369c6000198460080261367e565b1980831691505092915050565b60006136b5838361368b565b9150826002028217905092915050565b6136ce826128c8565b67ffffffffffffffff8111156136e7576136e6612e5b565b5b6136f18254613093565b6136fc828285613638565b600060209050601f83116001811461372f576000841561371d578287015190505b61372785826136a9565b86555061378f565b601f19841661373d86613519565b60005b8281101561376557848901518255600182019150602085019450602081019050613740565b86831015613782578489015161377e601f89168261368b565b8355505b6001600288020188555050505b505050505050565b600081519050919050565b600082825260208201905092915050565b60006137be82613797565b6137c881856137a2565b93506137d88185602086016128e4565b6137e18161290e565b840191505092915050565b60006080820190506138016000830187612a0f565b61380e6020830186612a0f565b61381b6040830185612ad2565b818103606083015261382d81846137b3565b905095945050505050565b60008151905061384781612839565b92915050565b60006020828403121561386357613862612803565b5b600061387184828501613838565b91505092915050565b600060408201905061388f6000830185612a0f565b61389c6020830184612ad2565b9392505050565b7f4e487b7100000000000000000000000000000000000000000000000000000000600052601260045260246000fd5b600060a0820190506138e76000830188612c99565b6138f46020830187612c99565b6139016040830186612c99565b61390e6060830185612ad2565b61391b6080830184612a0f565b9695505050505050565b7f4e487b7100000000000000000000000000000000000000000000000000000000600052602160045260246000fd5b600060ff82169050919050565b61396a81613954565b82525050565b60006080820190506139856000830187612c99565b6139926020830186613961565b61399f6040830185612c99565b6139ac6060830184612c99565b9594505050505056fea2646970667358221220a3316aaf0ea411c6e7d8b5aabb6d844d5cc2a750793a5bb9532631cf8daac90a64736f6c63430008140033",
  "linkReferences": {},
  "deployedLinkReferences": {}
}